S31500008000B8F6FF1F2987000031870000338700007C
S315000080103587000037870000398700000000000020
S315000080200000000000000000000000008D84000039
S315000080303D870000000000001585000065850000F2
S315000080404387000043870000438700004387000002
S3150000805043870000438700004387000043870000F2
S3150000806043870000438700004387000043870000E2
S3150000807043870000438700004387000043870000D2
S315000080804387000043870000FDB5000043870000DA
S3150000809043870000438700004387000043870000B2
S315000080A043870000438700004387000043870000A2
S315000080B04387000043870000438700004387000092
S315000080C0438700004387000043870000C1BA0000D1
S315000080D04387000043870000438700004387000072
S315000080E04387000085B300004387000043870000F4
S315000080F04387000043870000438700004387000052
S315000081004387000043870000438700004387000041
S315000081104387000043870000438700004387000031
S315000081204387000043870000438700004387000021
S31500008400FFFFFFFFFFFFFFFFFFFFFFFFFEFDFFFF79
S31500008410DFF80CD006F07EFE004800472D940000E1
S31500008420B8F6FF1F80F309887047EFF3098070479D
S31500008430684680F3098804480078C00714BF022004
S31500008440032080F31488704778F20000DFF818C024
S31500008450EFF305831B0618BF6047EFF31483DB07B2
S3150000846008BF604700DF704779E70000DFF818C0F3
S31500008470EFF305831B0618BF6047EFF31483DB0792
S3150000848008BF604700DF7047B7E70000EFF30980D9
S31500008490816911F8021C39BB90E80F10E047EFF331
S315000084A0098C194B93E80600914218D059B10CB4C7
S315000084B04FF0010381F821302CE9F00FC1F824C0F8
S315000084C000F0CDFF0CBC1A60D2F824C0BCE8F00F57
S315000084D092F821308CF309881BB192F82000CCF871
S315000084E000006FF0020E704710B5084A12689142FC
S315000084F009D8074C54F8214090E80F10A047EFF335
S31500008500098C8CE80F0010BD9C01002094F100003E
S3150000851094F1000006F07EFA114B93E806009142B2
S315000085201BD00CB44FF0000381F82130EFF3098C17
S315000085302CE9F00FC1F824C000F091FF0CBC1A60C2
S31500008540D2F824C0BCE8F00F8CF3098892F82130E9
S315000085501BB192F82030CCF800306FF0020E704755
S315000085609C01002006F09FFAD6E7000006F09AFA72
S3150000857006F099FAD0E7000063484CF22051C18119
S315000085804DF62811C1814FF4E97101805F494FF41E
S31500008590881048645E48002101705E4801732422F9
S315000085A042709A220270C27802F01F02C270032241
S315000085B002714171817911F0020FFBD0817901F0CE
S315000085C00C010829FAD1027140214171817911F01B
S315000085D0200FFBD0817911F0400FFBD01A210170DA
S315000085E00C21827931EA0202FBD1817911F0400F28
S315000085F0FBD049494FF4004008607047454A10785F
S315000086004FF0010C10F0C00F444819D0117801F05A
S31500008610C00140296AD0117801F0C001802918BF35
S315000086207047117B11F0010F01D04FF4004037491C
S31500008630496C0CEB1171B0FBF1F0394908607047D9
S31500008640517911F0400F0AD0117901F01F01491C30
S31500008650B0FBF1F0517901F01F01183140E01178BB
S3150000866011F0040F18BF4FF400400ED0D17801F07E
S31500008670E00111F01F0FDAD149110829D7D2DFE83E
S3150000868001F0181B1F23272A2D31117B11F0010F32
S3150000869018BF4FF400401178C1F3C2010CFA01F182
S315000086A0C9B2B0FBF1F0517811F0300F18BF400994
S315000086B0DCE700EB800005E000EB80000002B6E797
S315000086C0C0EB0010C001B2E700EB80004002AEE74D
S315000086D04FF4377104E04FF4B76101E040F69501BD
S315000086E04843A4E740F671314843A0E7507810F0BC
S315000086F0010F9AD0107A0B49C0F342000CFA00F031
S31500008700B1FBF0F093E70000002005400080044034
S31500008710005006400040064008ED00E000127A00D6
S315000087200000002000093D00064880470648004733
S31500008730FEE7FEE7FEE7FEE7FEE7FEE7FEE7FEE70B
S31500008740FEE7FEE779850000118400004FF47A51B8
S315000087504843401EFDD17047FF2008700120704736
S315000087602DE9F84F0278A2F180031F2B03D800F001
S3150000877029FCBDE8F88F01F8012B89460178461CD3
S31500008780172980F05482DFE801F00C3B4A79FBFAA6
S31500008790F9F8F7969BF8F8F8F8F8A1F6F5F4F3F37C
S315000087A0F3003078002209F10101052823D007DC07
S315000087B001281CBF022803281DD0042809D01AE06E
S315000087C0062818D0F02809D0FE2811D0FF2809D095
S315000087D011E0FC480422006808600CE001200870E3
S315000087E0024608E04020087000204870022202E09D
S315000087F005200870012289F80020901CBDE8F88F3A
S31500008800307820B1012800F00B8100F0F4B87078C0
S31500008810ED4900F00100C043086000F001B934786A
S31500008820002C08BF012400F01DFE012C40F0F8804A
S31500008830E649012020220870E549CA674022CA6736
S31500008840086410220A600222CA63CB6843F0100350
S31500008850CB600B6843F010030B600B6C43F0010315
S315000088600B64CA63CA6C42F00202CA64D94A40F277
S315000088701311516089F8000000F0A0B9D348002513
S3150000888001240570D44844641021416002214164EA
S31500008890816C41F02001C0F88810CE48416841F053
S315000088A080714160CD49416000F0DBFD89F80050E0
S315000088B0204600F083B930880001401EFDD1AFE0AC
S315000088C0002089F8010089F80000D4E070787379F7
S315000088D0D6F80220317863F31F6210F0010F0AD038
S315000088E0DFF8F4C211F0010F4FF020030CBFCCF8F3
S315000088F08830CCF8843010F0020F0AD0DFF8D8C2E6
S3150000890011F0020F4FF040030CBFCCF88830CCF8C2
S31500008910843010F0800F04D0DFF8C4C2CB09CCF845
S31500008920003072B3AF4B9A4288BF1A4600234FF00D
S31500008930E02CCCF81830AC4C6243AC4CB2FBF4F2F1
S31500008940CCF814200522CCF81020A34C10F0010F0F
S3150000895018BF002929D110F0020F06D0D4F89020B4
S31500008960C2F3C012B2EB510F1FD110F0040F09E091
S315000089704CE163E059E031E044E158E182E071E026
S3150000898066E01AE018BFB3EB910F0ED110F0200F7E
S3150000899018BFB3EB511F08D110F0800F0BD0226D1A
S315000089A0C2F34002B2EBD11F05D0DCF81020C2F3AF
S315000089B00042002ACAD0CCF810308D4900204A6DFA
S315000089C04969C2F3C01240EA4200C1F3400140EADD
S315000089D0C11089F80000012000F0F0B8F178306885
S315000089E061F31F6038B18349814209D87749012074
S315000089F04870486014E0FF2089F800000120DDE09F
S31500008A00724900224A707C4A0244B2FBF0F0022806
S31500008A1098BF012003D9794AA2FB0020400848608C
S31500008A20002089F800000120C8E03078711C002879
S31500008A3008BF4FF4807000F017FDF1E7307800F0C2
S31500008A4003014A1C6149C0F380000A754875E7E7CF
S31500008A505E4831780172B6F801104181B6F803100C
S31500008A608181DDE759480078012806D0002089F881
S31500008A70000089F801000220A0E04946304600F0D7
S31500008A802AF99BE0514D2878012808D0002089F862
S31500008A90000089F8010089F8020003208EE0DFF863
S31500008AA060B10024204609F103078BF8004036F830
S31500008AB001AFB61CBAF1000F77D016F8018B18F08B
S31500008AC0020F08BFAAF1010A45D018F0010F18BF1E
S31500008AD06E890FD00021404600F08BFF022802D09D
S31500008AE0012807D061E0761E5FD39BF800100029AD
S31500008AF0F0D05AE0AAF10106BAF1000F55D026B916
S31500008B0018F0010F18BF4FF00E08B5F80AA0694615
S31500008B10404600F06EFF022802D0012808D044E04B
S31500008B20BAF1010A41D39BF800100029EFD03CE0CE
S31500008B30009907F8011B0099641C090A07F8011B34
S31500008B400099090C07F8011B0099090E07F8011B8B
S31500008B50761ED4D229E0F17856F8040B61F31F6033
S31500008B6000901A4845896946404600F042FF0228AF
S31500008B7002D0012807D018E06D1E16D39BF800100E
S31500008B800029F0D011E0641CBAF1010AE3D20F48C3
S31500008B90458900210E2000F02CFF022805D16D1E0C
S31500008BA003D39BF800100029F3D089F80040210A6E
S31500008BB089F8011089F80200A7EB0900401CBDE8FE
S31500008BC0F88F00006AF200001018FE43A0E0FF1FB5
S31500008BD008F00F4000A0044000F00F4013010A0007
S31500008BE00408FE43C0C62D00006CDC0240420F00A4
S31500008BF03CF00F40001BB700FF356E01ABAAAAAAD6
S31500008C0004000020E7480078012805D0FF2089F8F5
S31500008C1000000220BDE8F88F3179D6F8010061F333
S31500008C201F6000906946002000F0E3FEF8E6FF2092
S31500008C3009F8010C0120BDE8F88FDA4810B44FF0AE
S31500008C40020C6421C0F804C0418101230375D64893
S31500008C50816B41F4F0518163D44A81155161D44846
S31500008C602024C466C46F44F02004C4679161402484
S31500008C70C466C46F44F04004C467CC1CD461C26FA0
S31500008C8022F08002C267CB4A1160C362C36B43F015
S31500008C900103C363C84B1961102140F8141C50F836
S31500008CA0043C43F0100340F8043C40F223135360A5
S31500008CB0C0F82CC0C26B42F00202C263DA1EBF4B80
S31500008CC01A61C0F8B010D0F8BC1041F01001C0F81D
S31500008CD0BC1010BC70472DE9F04F85B0054600204A
S31500008CE0DFF8DCB2029101908C1C8BF8000015F8BD
S31500008CF0011F6D1C491E039107468146491C00F061
S31500008D00478115F8018B18F0020F00F0BE80002F86
S31500008D1030D0A448468908F0110001280ED16946D2
S31500008D20404600F066FE022815D1761EC0F030815E
S31500008D309BF800100029F2D000F02AB969460E20EF
S31500008D4000F057FE022805D1761E03D39BF80010CB
S31500008D500029F3D00027012840F01A81009904F871
S31500008D60011B0A0A04F8012B0A0C04F8012B090E50
S31500008D7004F8011B18F0100F4AD0E87855F804AB38
S31500008D8018F0010F60F31F6A8648B0F80C901CBFFC
S31500008D908448468912D00021404600F02AFE022867
S31500008DA003D001280AD000F0F3B8761EC0F0F08098
S31500008DB09BF800100029EED000F0EAB87948468901
S31500008DC06946404600F015FE022802D0012807D069
S31500008DD013E0761E11D39BF800100029F0D00CE0AA
S31500008DE07049009A09691140514506D0B9F1010947
S31500008DF003D39BF800100029E0D06A49009A09695C
S31500008E001140514518BF40F0100001284AD133E007
S31500008E10644918F0010F4E8912D06FBB00214046FD
S31500008E2000F0E7FD022804D0012808BF012723D05F
S31500008E30AEE0761E36D39BF800100029EED0A7E0F0
S31500008E406946404600F0D5FD022802D0012807D029
S31500008E509EE0761E26D39BF800100029F0D097E0FE
S31500008E60009904F8011B0A0A04F8012B0A0C04F8FD
S31500008E70012B090E04F8011B4FF000090199491C4A
S31500008E8001919BF80010D1BB46E0002F1CBF45485E
S31500008E9046891CD069460E2000F0ABFD022802D0A0
S31500008EA0012807D074E0761E72D39BF800100029C3
S31500008EB0F0D06DE0009804F8010B010A04F8011BDC
S31500008EC0010C04F8011B000E04F8010B0027E978D9
S31500008ED055F8040B18F0200F61F31F6000901DBFBA
S31500008EE03049086101202F4808BF4689C6D1694626
S31500008EF0404600F07EFD022807D0012800E011E080
S31500008F0008BF4FF00109B9D042E0761E40D39BF866
S31500008F1000100029EBD03BE00399491E0391491C40
S31500008F207FF4EFAE012833D1002F1CBF1D484589C1
S31500008F301CD069460E2000F05CFD022802D00128F4
S31500008F4007D025E06D1E23D39BF800100029F0D032
S31500008F501EE0009904F8011B0A0A04F8012B0A0C0A
S31500008F6004F8012B090E04F8011B11E0B9F1000FFA
S31500008F701CBF0C4845890BD000210E2000F039FD9E
S31500008F80022805D16D1E03D39BF800100029F3D0EB
S31500008F90DDE90112117002994870029805B0201A95
S31500008FA0BDE8F08FA0E0FF1F0080044000B0044041
S31500008FB018F00F4000A004400090044000C0044098
S31500008FC00400002070B500780C46802803D0FF20EE
S31500008FD00870012070BD01F0EFFF0646001D06F087
S31500008FE031F8C5B28020207065702A46311DA01C5C
S31500008FF006F004F8A81C70BD00240320DFF8E4C3C3
S3150000900000DFF94DF94EDFF8E8C300DF0220DFF894
S31500009010E4C3F16800DFA5FB04104008A0EB800064
S31500009020001904F10101CCB2EDD10120DFF8C4C36F
S31500009030F16800DFE7E7ED4900281CBF01208871D1
S31500009040C9680420DFF8ACC300DF7047E749012296
S3150000905000280A7014BF02200120C8707047E34937
S31500009060012200284A7014BF0220012008717047AF
S31500009070DE49012200288A7014BF022001204871AF
S315000090807047DA480A214161012101727047D748C9
S31500009090DFF860C3C168082000DF7047D348DFF8F7
S315000090A054C3C168102000DF7047D048DFF844C3BE
S315000090B0C168202000DF7047CC4C94B00125002207
S315000090C012A9CD48DFF834C300DFC8B9129810F0F2
S315000090D0FF0006D0012807D0022808D0032809D0AF
S315000090E00EE002F07BF90BE002F09DF908E002F0D9
S315000090F0A8F905E010A802F0B6F810A802F0B4F935
S3150000910002F001FF4028CCBF402000280CD081B2DD
S31500009110684602F045FA38B10146684602F0FBFEA1
S3150000912010B165700120207102F0DDF9014640287A
S31500009130CCBF40210029C2D0684602F02FFF00288C
S31500009140BDD081B2684602F0D7F90028B7D0657065
S3150000915001202071B3E782B000204FF00108009093
S31500009160474646466021A448DFF894C200DFDFF890
S3150000917094C200DFDFF874A2CAF80C0002F080F88F
S31500009180012002F0D5F8012002F0DBF8012002F000
S31500009190E1F803F0D7F800F033FC0421DAF80C000C
S315000091A002F0E3F8C146002003F0D8F84FF0000BB8
S315000091B08AF808B00125CAF814B08AF807500224C4
S315000091C001F007FF904A002346F20B41AFF2D71099
S315000091D0DFF838C200DF00F043F900F042F9002260
S315000091E04FF6FF713F20DFF828C200DFDFF824C208
S315000091F000DF054610F0080F05D004248AF808B0F1
S3150000920006208AF8070015F0040F1FD08AF804B06C
S31500009210002002F096F89AF8060068B1002002F0E5
S315000092201CFD01F0C9FE814605F00CFF01464846CB
S3150000923002F071FE8AF806B0022002F00EFD01204F
S315000092408AF8040002F07DF84FF0000915F0100FBF
S3150000925011D000F007F9042002F0FFFC002003F013
S315000092607DF8002002F064F8002002F06AF8002081
S3150000927002F070F8FEE715F0200F04D000F0F2F8C7
S31500009280042002F0EAFC15F0010F60D0B9F1000FDE
S3150000929006D10421DAF80C0002F067F84FF0010954
S315000092A09AF80800012808D1DAF8140018B1401E0F
S315000092B0CAF8140001D18AF808B09AF807000728FE
S315000092C045D2DFE800F0441F442944040D009AF813
S315000092D0080000283BD103F041F88AF807B036E0D1
S315000092E09AF8080098BB002C18BFB4F101042ED1DF
S315000092F0002003F033F801208AF8070001F069FE28
S315000093000A2424E0002C18BFB4F101041FD1012067
S3150000931003F024F8032018E003F02FF8B8B1009802
S3150000932090B900233C4A3D493D48DFF8E0C000DFE4
S315000093303C4A3D490023AFF27F20DFF8D0C000DF72
S31500009340CAF810000120009002208AF8070015F0E4
S31500009350020F3FF444AF9AF80000A0B19AF8030058
S31500009360012818BF02280ED1B8F1000F18BF4FF020
S31500009370000805D14FF00108012808BF8AF800B09F
S31500009380404601F0D5FF9AF8020088B19AF8050028
S31500009390012818BF02280BD1002E18BF002604D1C1
S315000093A00126012808BF8AF802B0304601F0D2FF34
S315000093B09AF8010000283FF412AF9AF80400012839
S315000093C018BF02287FF40BAF002F18BF002704D167
S315000093D00127012808BF8AF801B0384601F0B1FF1D
S315000093E0FDE6000005EF0000ABAAAAAA00E0FF1FF9
S315000093F015EF0000D7E00000F00500203FE5000073
S3150000940081E40000C9EB0000A801002047EC000041
S315000094109DE0000071E10000080200200F900100AD
S3150000942067A70000980300200190010010B501F025
S31500009430F3FEFEF7FDFF054A4CF60801AFF2E92000
S31500009440DFF80CC000DF002010BD0000280500205A
S315000094506DED0000FEE77047FEE770477047704706
S315000094607047704770470000F0B4441EFF4D02007D
S315000094704FF040064FF02007FD48D0F804C002D157
S31500009480F0BC704712B911F8013B082213F0010F26
S3150000949014BFC5F88460C5F88860C5F88870604652
S315000094A0401EFDD1C5F884706046401EFDD15B08A4
S315000094B0521E641EE6D2F0BC70472DE9F003ED4F54
S315000094C00122BA61E94D2026C5F88860C5F8846096
S315000094D0B861C5F88860C5F884604208BA61C5F805
S315000094E08860C5F8846083188208BA61C5F8886008
S315000094F0C5F884601344C208BA61C5F88860C5F827
S3150000950084601A44BA61C5F88860C5F88460002290
S31500009510BA61C5F88860C5F884600122BA61C5F8E9
S315000095208860C5F8846091466A64DFF8448398F8D9
S3150000953014305FEA030C05D0C5F88860C5F884606E
S315000095405B1EF9D1C5F88860D7F81C22C5F884607F
S31500009550C5F88860D7F81C32C5F8846042EA430330
S31500009560C5F88860D7F81C22C5F8846043EA8202F1
S31500009570012A12D0022A18BF042A66D01CF1210043
S3150000958005D0C5F88860C5F88460401EF9D1012071
S31500009590B861BDE8F003D0B2704710F0020F29D0D1
S315000095A000239C462020C5F88860D7F81C42C5F8E1
S315000095B084605B08A44443EAC473401EF3D1C5F833
S315000095C08860D7F81C02C5F884608CEA000010F0A9
S315000095D0010F18BF0822002918BF0B6098F8140065
S315000095E028B1C5F88860C5F88460401EF9D1C5F871
S315000095F048901CE0BCF1000F06D0C5F88860C5F89D
S315000096008460BCF1010CF8D1C5F8489000230868C5
S315000096102021B861C5F88860C5F884600344400815
S31500009620491EF6D1BB61C5F88860C5F8846098F814
S31500009630080000281CBF0021B961A8D0C5F88860C1
S31500009640C5F88460401EF9D1A1E798F81530002BC3
S315000096501CBF10F0020F212105D0C5F88860C5F89F
S315000096608460491EF9D1BCF1000F06D0C5F88860A8
S31500009670C5F88460BCF1010CF8D1C5F84890002B00
S3150000968085D010F0020F82D10020B8612120C5F8E4
S315000096908860C5F88460401EF9D178E72DE9F04F5F
S315000096A0DFF8D08101224FF0000CC8F818206F4E69
S315000096B02027C6F88870DFF8B8A1DAF80420134628
S315000096C05B1EFDD1C6F8847013465B1EFDD1C8F83B
S315000096D01800C6F8887013465B1EFDD1C6F8847064
S315000096E013465B1EFDD10CEB00044FEA500CC8F884
S315000096F018C0C6F8887013465B1EFDD1C6F8847084
S3150000970013465B1EFDD164444FEA900CC8F818C09E
S31500009710C6F8887013465B1EFDD1C6F884701346E2
S315000097205B1EFDD164444FEAD00CC8F818C0C6F8D9
S31500009730887013465B1EFDD1C6F8847013465B1E07
S31500009740FDD104EB0C03C8F81830C6F88870134630
S315000097505B1EFDD1C6F8847013465B1EFDD1C8F8AA
S315000097601830C6F8887013465B1EFDD1C6F88470A3
S3150000977013465B1EFDD10123C8F81830C6F8887061
S3150000978013465B1EFDD1C6F8847013465B1EFDD1E1
S315000097904FF00109C6F844909AF814405FEA040CA9
S315000097A00BD0C6F8887013465B1EFDD1C6F88470D0
S315000097B013465B1EFDD1641EF3D1C6F888701346AE
S315000097C05B1EFDD1D8F81C32C6F884701446641EA0
S315000097D0FDD1C6F888701446641EFDD1D8F81C4227
S315000097E0C6F8847015466D1EFDD143EA4403C6F8DB
S315000097F088701446641EFDD1D8F81C42C6F88470E1
S3150000980015466D1EFDD143EA8403012B18D0022BA9
S3150000981018BF042B7ED01CF121010BD0C6F888702E
S315000098201046401EFDD1C6F884701046401EFDD17C
S31500009830491EF3D10120C8F81800D8B2BDE8F08F50
S3150000984010F0020F4AD0002425464FF0200CC6F82F
S3150000985088701046401EFDD1D8F81C02C6F88470E8
S315000098609346BBF1010BFCD1054405E000F00F4027
S31500009870A0E0FF1F0010FE43640844EAC074BCF178
S31500009880010CE4D1BC46B346C6F88870D6461046ED
S31500009890401EFDD1D8F81C02CBF884C0521EFDD163
S315000098A0684010F0010F18BF0823002918BF0C608C
S315000098B09EF81410002918BFDAF804200BD0CBF854
S315000098C088C01046401EFDD1CBF884C01046401E0D
S315000098D0FDD1491EF3D1CBF8489035E0BCF1000F1D
S315000098E00CD0C6F888701046401EFDD1C6F88470AC
S315000098F01046401EFDD1BCF1010CF2D1C6F84890CD
S31500009900096800244FF0200CC8F81810C6F88870B3
S31500009910104600E02FE0401EFBD1C6F884701046CA
S31500009920401EFDD10C444908BCF1010CECD1C8F82D
S3150000993018403946B446C6F888701046401EFDD118
S31500009940CCF88410521EFDD19AF8081000293FF475
S3150000995071AF0020C8F81800DAF80420C6F888703D
S315000099601046401EFDD1C6F884701046401EFDD13B
S31500009970491EF3D15EE79AF81550002D1CBF10F072
S31500009980020F21240BD0C6F888701146491EFDD15E
S31500009990C6F884701146491EFDD1641EF3D1BCF190
S315000099A0000F0CD0C6F888701146491EFDD1C6F8C6
S315000099B084701146491EFDD1BCF1010CF2D1C6F8E6
S315000099C04890002D3FF436AF10F0020F7FF432AF0F
S315000099D00020C8F818002121C6F888701046401EDD
S315000099E0FDD1C6F884701046401EFDD1491EF3D144
S315000099F020E7024A527802B15FE54FE6A0E0FF1F7A
S31500009A0010B5FFF71AF900F010FC012010BD38B5AB
S31500009A100C4600F00C0040F00200694600F035FCF0
S31500009A209DF80020DDF80130012842EA0322226079
S31500009A3018BF002038BD082806D1FE4A13688B429D
S31500009A4012BF11600120704738B500F00C040422E3
S31500009A50684600F00BFC6946204600F016FC01281B
S31500009A6018BF002038BD00F07F4238B504460D46C9
S31500009A7000F0F00042EA00010820FFF7DCFF0028B2
S31500009A8008BF38BD04F00C0040F0030469462046C8
S31500009A9000F0FBFB6946204600F0F7FB9DF800103E
S31500009AA0DDF80120012841EA0221296018BF0020C3
S31500009AB038BD38B50D46044600F07F4100F0F00091
S31500009AC001430820FFF7B7FF002808BF38BD7CB167
S31500009AD004F00C0040F0010404222946684600F018
S31500009AE0C5FB6946204600F0D0FB01280FD107E0F0
S31500009AF0D0484168A94214BF45600120E8D138BD6D
S31500009B000E20002100F0C1FB012808BF38BD00204F
S31500009B1038BD30B50C46054683B0C7490020FFF76F
S31500009B20C8FF002804BF03B030BD0422294601A89F
S31500009B3000F09CFB052001A900F0A7FB012818D125
S31500009B400F20694600F0A1FB012812D10E206946BC
S31500009B5000F09BFB9DF80010DDF80120012841EA8A
S31500009B600221216018BF002000281EBF012003B07B
S31500009B7030BD002003B030BD38B50C460546AE49B1
S31500009B800020FFF796FF002808BF38BD04222946AB
S31500009B90684600F06BFB0520694600F076FB01285D
S31500009BA015D104222146684600F060FB0D20694667
S31500009BB000F06BFB01280AD10E20002100F065FBA6
S31500009BC0012818BF002000281CBF012038BD002036
S31500009BD038BD2DE9F04F83B015460F4606462EE0F8
S31500009BE096490020FFF765FF002800F0B780314650
S31500009BF0042201A800F03AFB052001A900F045FB6C
S31500009C0001287DD10F20694600F03FFB012877D15E
S31500009C100E20694600F039FB9DF80010DDF80120A2
S31500009C20012841EA022118BF0020002868D0B007A9
S31500009C30C00E21FA00F0761C07F8010B6D1E002DF0
S31500009C407ED016F0030FCBD1032D4ED9C6F30900F3
S31500009C50C0F58068454538BF25F00308B946B8F118
S31500009C60000F7BD04FEA980B73490020FFF721FFC6
S31500009C70002873D005240422314601A800F0F6FA24
S31500009C8001A9204600F001FB012867D10F204946B3
S31500009C90009000F0FAFA012860D14FF0000ABBF1FB
S31500009CA0000F14D900980024029049460298FFF745
S31500009CB0A0FE022803D1611CCCB20A2CF5D30128E0
S31500009CC04CD10AF1010A09F10409DA45EAD30E205A
S31500009CD0002100F0DAFA012818BF002080B14644BE
S31500009CE0A5EB08054744032DB0D8002D18BF534CEB
S31500009CF030D021460020FFF7DCFE08B1314600E0F7
S31500009D002CE0042201A800F0B1FA052001A900F018
S31500009D10BCFA012822D10F20694600F0B6FA0128C4
S31500009D201CD10E20694600F0B0FA9DF80010DDF84F
S31500009D300120012841EA022118BF002070B100E08D
S31500009D4008E0B007C00E21FA00F0761C07F8010BF8
S31500009D506D1ECED103B00120BDE8F08F03B0002008
S31500009D60BDE8F08F2DE9F04F83B015460F46064645
S31500009D702BE03C7831490020FFF79BFE002858D0A5
S31500009D80B007C00E844031460422684600F06EFAE1
S31500009D900520694600F079FA01284AD104222146B5
S31500009DA0684600F063FA0D20694600F06EFA012855
S31500009DB03FD10E20002100F068FA012818BF0020CC
S31500009DC0002836D0761C7F1C6D1E002D7DD016F027
S31500009DD0030FCED1032D51D9C6F30900C0F5806813
S31500009DE0454538BF25F00308B946B8F1000F7CD0C9
S31500009DF04FEA980B10490020FFF75BFE002874D04D
S31500009E00052404223146684600F030FA69462046A9
S31500009E1000F03BFA012868D10D204FF0000A0290AD
S31500009E20BBF1000F1CD90298002401904946019805
S31500009E3006E04BE0080000205200002350000023FB
S31500009E40FFF7D7FD022803D1611CCCB20A2CEDD353
S31500009E5001284AD10AF1010A09F10409DA45E2D3D7
S31500009E600E20002100F011FA012818BF002068B367
S31500009E704644A5EB08054744032DADD8002D18BF71
S31500009E80DFF86C842DD03C7841460020FFF711FEA8
S31500009E90E0B1B007C00E844031460422684600F0A7
S31500009EA0E5F90520694600F0F0F901281DD10422E4
S31500009EB02146684600F0DAF90D20694600F0E5F91A
S31500009EC0012812D10E20002101E00AE00DE000F089
S31500009ED0DCF9012818BF002038B1761C7F1C6D1EE6
S31500009EE0D1D103B00120BDE8F08F03B00020BDE85A
S31500009EF0F08F73B5064600246425FE480199FFF7E6
S31500009F003BFE002804BF02B070BD46F48031FA481B
S31500009F10FFF732FE002812BFF84E02B070BD01A94D
S31500009F203046FFF7F6FD002804BF02B070BD019869
S31500009F3010F4803F02D002B0012070BD641CAC4218
S31500009F40EDDB02B0002070BD38B50D46044669460B
S31500009F50EA48FFF7DEFD002808BF38BD009810F478
S31500009F60003008BF38BD2146002000F09EF90028C9
S31500009F7008BF38BD2946012000F097F9002818BF10
S31500009F80012038BD014608B50020FFF7B2FF0028C2
S31500009F9008BF08BD69460F2000F087F9002808BFF2
S31500009FA008BD0098811C0F20FFF7A3FF002808BFFB
S31500009FB008BDD349D148FFF7DFFD002818BF0120AF
S31500009FC008BD70B592B04FF08075DDE9164C10955E
S31500009FD08DE81C104268099282680D920068CDE9EE
S31500009FE00E016D4600210820FFF725FD002818BF49
S31500009FF000244FD055F824102046FFF77AFF00289A
S3150000A00048D0641C042CF5D30920696AFFF771FF58
S3150000A010002818BF0D243DD055F824102046FFF720
S3150000A02068FF002836D0641C102CF5D31020296C4C
S3150000A030FFF75FFF70B3B14EB1493046FFF79CFDA5
S3150000A04040B3062011A900F020F99DF84410DDF870
S3150000A0504520012841EA022102BF11F0A00F42F279
S3150000A0601075002416D111A93046FFF752FD88B1AC
S3150000A070119810F4003F10D06946002000F015F941
S3150000A080002804BF12B070BD0098002802BF01204E
S3150000A09012B070BD002012B070BD641CAC42E2D399
S3150000A0A0F8E79849002814BF00200120086070478F
S3150000A0B038B5934D914C06287ED2DFE800F0033F79
S3150000A0C00716848C0120FFF7ECFFAAE00120FFF7BA
S3150000A0D0E8FF0220DFF830C200DF0020FFF7E1FFD3
S3150000A0E00220DFF824C200DF9BE00120FFF7D9FF42
S3150000A0F00120DFF814C200DF0020FFF7D2FF0120A5
S3150000A100DFF804C200DF00F04AF9002808BF38BDB6
S3150000A11029462046FFF730FD002808BF38BD01203C
S3150000A120FFF7BFFF0120DFF8E0C100DF0020FFF7E7
S3150000A130B8FF0120DFF8D0C100DF72E00120FFF791
S3150000A140B0FF0220DFF8C0C100DF0020FFF7A9FF43
S3150000A1500220DFF8B4C100DF00F021F9002808BFB3
S3150000A16038BD29462046FFF707FD002808BF38BD41
S3150000A1700121664D2846FFF7FFFC002808BF38BDC1
S3150000A1800120FFF78EFF0220DFF87CC100DF0020F0
S3150000A190FFF787FF0220DFF870C100DF694620461F
S3150000A1A0FFF7B7FC002808BF38BD009810F4003F41
S3150000A1B0F4D00021284600E035E0FFF7DDFC00285A
S3150000A1C008BF38BD2DE052492046FFF7D5FC0028D0
S3150000A1D008BF38BD25E0FEF730FD00F026F800F098
S3150000A1E0A6F8002808BF38BD1E210020FFF723FC73
S3150000A1F0002808BF38BD00210820FFF71CFC0028F6
S3150000A20008BF38BD4FF0A0410420FFF714FC00281A
S3150000A21008BF38BD29462046FFF7AEFC002808BF18
S3150000A22038BD012038BD002038BD3A482021C1671D
S3150000A2304021C16701210164102101600221C1632F
S3150000A240C26842F01002C260026842F01002026068
S3150000A250026C42F001020264C163C16C41F002016A
S3150000A260C1642D4940F21310486070470023002A4C
S3150000A27098BF70474FEAC30C21FA0CFC00F803C0E4
S3150000A2805B1CDBB29A42F5D8704770B50D460646A0
S3150000A290002429463046FFF7ACFB022818BF70BDE4
S3150000A2A0611CCCB20A2CF4D370BD2DE9F0410E46E8
S3150000A2B00146002464251048FFF75EFC002814BF01
S3150000A2C00E4FBDE8F08131463846FFF722FC0028E4
S3150000A2D008BFBDE8F081306810F4803F02D1641CED
S3150000A2E0AC42F0DBAC4204BF0020BDE8F08115E0D3
S3150000A2F050000023F8ED00E0F4ED00E0F0ED00E0A2
S3150000A30001005FA00408FE43FFEE0000FCED00E044
S3150000A31000005FA008F00F4000A004403146454809
S3150000A320FFF7F7FB002818BF0120BDE8F0810020E9
S3150000A33010B584B06946FF240C54401CC0B20828EE
S3150000A340FAD33320FFF790F89E208DF80000E7201F
S3150000A3508DF8010069461020FFF786F8002069464F
S3150000A3600C54401CC0B20828FAD33320FFF77CF8FF
S3150000A37000208DF8040001A90820FFF775F80220D7
S3150000A3806946FFF782FF9DF80010DDF801200128DD
S3150000A39041EA0221029118BF002004B010BD38B571
S3150000A3A025484FF0FF3101604160FEF746FCFFF79C
S3150000A3B03CFF01F04FFCFFF7BAFF002808BF38BD8D
S3150000A3C01E210020FFF737FB002808BF38BD0021FB
S3150000A3D00820FFF730FB002808BF38BD4FF0A0412A
S3150000A3E00420FFF728FB002814BF4FF0204438BD97
S3150000A3F006206946FFF749FF9DF80010DDF80120A9
S3150000A400012841EA022101D0002038BD34EA0100CA
S3150000A410EED10A490420FFF70EFB002808BF38BD1D
S3150000A42001F01DFC00210820FFF705FB002818BFDE
S3150000A430012038BDF8ED00E008000020000F0050B4
S3150000A44000207047002070470020704700207047AA
S3150000A450002070470020704700207047002070479A
S3150000A46000207047002070474FF6FF710022084613
S3150000A470DFF8E8C000DFDFF8E8C000DF044610F0D0
S3150000A480040F18BF01F0E0FD14F0400FECD002F00D
S3150000A49018FE01F02BFEE7E74FF6FF710022084693
S3150000A4A0DFF8B8C000DFDFF8B8C000DF10F0010F3A
S3150000A4B018BF02F0E8FDEFE700291CBFDFF8A4C0D3
S3150000A4C000DF7047DFF898C000DF70470022DFF832
S3150000A4D08CC000DF704710B500F09CF800F0F4FC6B
S3150000A4E0BDE8104001F0B6BC2DE9F0031E4CDFF8C4
S3150000A4F07C8000252560D8F8000038B100231A4674
S3150000A50003211B48DFF86CC000DF20601A4E1B4F8A
S3150000A510002400BF46F8245057F8240038B1002321
S3150000A5201A460221DFF84CC000DF46F82400641CFE
S3150000A5300F2CEFD9124C2560D8F80400002804BF70
S3150000A540BDE8F003704700231A4602210D48DFF8E4
S3150000A55024C000DF2060BDE8F00370479DE00000E6
S3150000A56071E10000D7E0000050E0FF1FCCF20000D0
S3150000A57069A4000047EC000018F4FF1FD4F20000A5
S3150000A5805801002099A4000000F048BE00F04EBE1D
S3150000A59000F054BE1C4902680A6082790A71427949
S3150000A5A04A71007988710020C871084600F04EBED5
S3150000A5B010B50446144800F056FE002808BF10BD2A
S3150000A5C01148016821600179A17141796171807931
S3150000A5D02071012010BD10B50C4CDFF834C030B12D
S3150000A5E000DF2060002001F038FB002010BD00DFF6
S3150000A5F02168401AB0F5967F2CBF01200020FEF797
S3150000A6001AFDF2E7012070472400002020000020F8
S3150000A610F9EE00005D480021017041608160012271
S3150000A62042708170C1600161704710B5944601287F
S3150000A63002D10BB1012B01D0002010BD534C206973
S3150000A640E168884201BFA078002801206070F3D03D
S3150000A6504F482169402200EB8111604604F0CEFC90
S3150000A6602069401C206121690020052908BF20615E
S3150000A6702169E268914208BFA070402010BD0228FF
S3150000A68018BF7047002B08BF704770B510780125BA
S3150000A6901146072802BF3F48057070BD3B4C207825
S3150000A6A020B16068A268904208BF70BD3A486268EF
S3150000A6B000EB82101A4604F0A1FC6068401C606042
S3150000A6C06068052804BF002060606068A168884251
S3150000A6D008BF25700120DFF8C4C0616900DF70BDC6
S3150000A6E02DE9F0472A4E0025284CA6F5A077DFF87D
S3150000A6F0B0804FF0010920E0E06806EB8011A06809
S3150000A70007EB8010FEF72CF8A068401CA8FB002180
S3150000A7108908494201EB81010844A060A06861688C
S3150000A720884208BF2570607880B16570E068402275
S3150000A73006EB8011002002F0BDFDA068616888422A
S3150000A74004BF20780028D7D1BDE8F087E068401C18
S3150000A750052808BF0020E060E0682169884208BF3C
S3150000A76084F80290E9E7DFF83CC000DF074948615A
S3150000A77000224FF6FF710120DFF82CC000DFFFF743
S3150000A780AFFF0020FEF762FCF2E700002C0000207D
S3150000A7908D0A0020040000204D090020D7E00000AB
S3150000A7A0CDCCCCCCC9EB00009DE0000000273C4698
S3150000A7B0DFF8F8C300DFFE4E4FF00108B94640F659
S3150000A7C0B83A4FF0060B7063002264214FF47040D4
S3150000A7D0DFF8E0C300DF02281BD0002CF4D0DFF83E
S3150000A7E0D8C300DFC01B5045EED9002486F802B05E
S3150000A7F074702046FEF73CFC012000F089FB4FF404
S3150000A8008040716B03F0A3FCFEF741FCFEF729FEC6
S3150000A810DAE7DFF8A8C300DF054610F4805F1AD038
S3150000A82086F807803220DFF898C300DFF079012828
S3150000A83011D170700020FEF71BFC012000F068FBB0
S3150000A8404FF48040716B03F082FCFEF720FCFEF7AC
S3150000A85008FE86F8079015F4005F04D0DFF858C3A9
S3150000A86000DF0746012415F4804F18BF002415F4B5
S3150000A870004F18BF002CA7D0DFF83CC300DF074607
S3150000A880A2E7CB490020887000F062BB70B5CD48C6
S3150000A890C74C01250078002818BF6571216A012977
S3150000A8A000D008B1002070BD6079012830D0FEF7D5
S3150000A8B0D9FDC5482021C1674021C1670564102123
S3150000A8C001600221C163C26842F01002C2600268E0
S3150000A8D042F010020260026C42F001020264C1639F
S3150000A8E0C16C41F00201C164B84940F213104860DE
S3150000A8F0012001F0B2F9B648006801F0F3F900282A
S3150000A90018BF2562CED1A07000F022FB012070BDD9
S3150000A9100320A070002000F01BFB012070BD2DE974
S3150000A920F84F00278246BE46009707290AD03846C8
S3150000A930102F11D20AEB4011C97A11F0100F40F016
S3150000A940208106E09A484078012814BF0D270C277D
S3150000A950EDE7401C1028EDD395483C46102FD0F863
S3150000A9600CB038BFDFF86C827ED20AEB441998F837
S3150000A970000099F8086099F8093099F80A2099F8C2
S3150000A98000500021052817D008EBC10C9CF80100E7
S3150000A990B04201BF9CF8020098429CF80300904226
S3150000A9A005D108EBC100426818F8310030E0491CB7
S3150000A9B018F831000528E7D1A6F16100192884BFEF
S3150000A9C0A6F14100192821D8A3F16100192884BFF6
S3150000A9D0A3F14100192801D9202B17D1A2F161005A
S3150000A9E0192884BFA2F14100192801D9202A0DD1C6
S3150000A9F0A5F16100192884BFA5F14100192805D8E1
S3150000AA002E2D1EBF5F2D0022052001D1002206201B
S3150000AA10002818BF012807D002281CBF03280428D5
S3150000AA2002D005287DD028E0DFF884C1D9F81C10B3
S3150000AA30CCF8141009B3B9F81A606FF0060301F2E6
S3150000AA40FF1103EBC603490ACCF83030CCF81810D6
S3150000AA505F2D18BF2E2D05D0E52D20D1032818BF58
S3150000AA6001281CD09B4500E00BE008BF4FF0010E0B
S3150000AA700020CCF81400CCF81800641C102CFFF44D
S3150000AA8074AFBEF1000F06D0494881695944C160D0
S3150000AA90002000F03DFA009801286FD060E0444E97
S3150000AAA03046717A806A012904BFB17A002915D12E
S3150000AAB0316B884212D30420B07000207070FEF70C
S3150000AAC0D7FA012000F024FA4FF48040716B03F0AE
S3150000AAD03EFBFEF7DCFAFEF7C4FC41E000281CBF93
S3150000AAE0316B884246D2191AF069431AB06983421B
S3150000AAF040D34FF000084F0286F8008010F0010F97
S3150000AB001ABF4008451C45080024002D17D907EB3D
S3150000AB1084204FF480623049FFF75BF820B320466B
S3150000AB2000E02EE001F0F9F8F0B1A0024FF48062E7
S3150000AB30294901F022F9B8B1641CAC42E7D30120DF
S3150000AB4070700020FEF794FA012000F0E1F94FF44E
S3150000AB508040716B03F0FBFAFEF799FAFEF781FC71
S3150000AB604FF0FF30BDE8F88F86F80280002000F035
S3150000AB70EFF9F5E701203072274632613846BDE825
S3150000AB80F88F0B4C0120A07000206070FEF770FA61
S3150000AB90012000F0BDF94FF48040616B03F0D7FA55
S3150000ABA0FEF775FAFEF75DFCDAE70000C9EB000078
S3150000ABB0440000209DE00000F9EE000071E1000075
S3150000ABC0FFEE0000A0E0FF1F08F00F4000A00440C9
S3150000ABD00000002084F70000D00B00202DE9F04192
S3150000ABE00446E5480D460078022818BFBDE8F08106
S3150000ABF0E24E3078002808BFBDE8F081E0480068E2
S3150000AC00002808BFBDE8F0810020FEF731FA4FF4B6
S3150000AC100071284604F00BFADA4F092C34D8A7F154
S3150000AC20580000EBC4014A6850F83410284604F076
S3150000AC30E5F9012C1DD0072C06BF70780028BDE869
S3150000AC40F081D148202200F13804C06BCF49284456
S3150000AC5004F0D4F9B07857F8200004F0F3F96168ED
S3150000AC6005F11C02885406206168921E8854BDE8CE
S3150000AC70F0817078002818BFBDE8F081FF20687267
S3150000AC800F20A872BDE8F081112C15D0192C1AD00E
S3150000AC90212C1FD0292C18BFBDE8F081B07857F8B9
S3150000ACA0200004F0CFF9B1780246284657F8211063
S3150000ACB0BDE8F04104F0A2B92846BDE8F041A02263
S3150000ACC0B34904F09BB92846BDE8F0415022B1498A
S3150000ACD004F094B9BDE8F04100F07BB92DE9F041EC
S3150000ACE00446A5480A460078022818BFBDE8F08148
S3150000ACF0A24E3078002808BFBDE8F0810125072C58
S3150000AD0018BF082C1CD1E1B21046FFF708FE401C04
S3150000AD1016D0F078002808BF357111D001280FD160
S3150000AD20D6E90610884204BF326A012A1DD0336B69
S3150000AD30B26A9A4204D1884202D9306A01287DD08B
S3150000AD40292C38BFBDE8F081FEF79BF93079002841
S3150000AD5008BFF570F06A00281FBF401CA042B572FC
S3150000AD60BDE8F081B07988B90CE0F079002818BF09
S3150000AD70BDE8F081F571716BBDE8F0414FF480508C
S3150000AD8003F0E5B9F068844288BFF460FFF77EFD02
S3150000AD90012808BFBDE8F081306A012818BFBDE868
S3150000ADA0F0810120FEF764F9B07A002760B1F068FF
S3150000ADB0844209D1306928B900F0BFFF002808BFD6
S3150000ADC0BDE8F081B7727772F068A04288BFBDE82F
S3150000ADD0F081B17951B9A0420FD1B5714FF400504D
S3150000ADE0716B03F0B4F9B462B07930B1B07901286F
S3150000ADF004BFB07A002818D109E0F068A04214D048
S3150000AE000520B070BDE8F041002000F0A1B8B06A9E
S3150000AE10A0420AD0F1690844A04206D00220B070D0
S3150000AE20BDE8F041002000F093B8F079012808BF92
S3150000AE30F771B07970B1F068844200E028E009D17A
S3150000AE40306928B900F079FF002808BFBDE8F08115
S3150000AE50B7727772F462F069401CF061706AB0F5FF
S3150000AE60802F24BFC0F31100002804D14FF4004006
S3150000AE70716B03F06CF93169706A4FF40072084423
S3150000AE80454900F07AFF40B1D6E90601814215D165
S3150000AE90BDE8F041012000F05BB8706A00F5007073
S3150000AEA07062307A002804BF7572BDE8F081042014
S3150000AEB0B070BDE8F041002000F04AB8706A00F5B5
S3150000AEC000707062BDE8F0812C4830B4C17A01246C
S3150000AED049B9324AC47200234CF60501AFF2337009
S3150000AEE0DFF8BCC000DF2F484FF48C2101602E49EB
S3150000AEF04FF4007008602D482D4904604FF40C7023
S3150000AF0008602C49244808601D48046030BC70471E
S3150000AF101A4900224A618A61CA6150B10A624878B8
S3150000AF2000280CBF08200720C8600A724A728A727D
S3150000AF30CA620A634A62CA700A714A718A711D4BF3
S3150000AF408A62CA7114481860012008700A61704745
S3150000AF5010B50A4C60700020FEF78AF80120FFF752
S3150000AF60D7FF4FF48040616B03F0F1F8FEF78FF8DE
S3150000AF70BDE81040FEF775BA07E0FF1F4400002049
S3150000AF8058E0FF1FD40000207C00002074F600006B
S3150000AF9094F6000034F70000D00B0020D00F0020FC
S3150000AFA047EC00009001002064E0FF1F68E0FF1FEF
S3150000AFB06CE0FF1F70E0FF1F8F48704710B58F4889
S3150000AFC004F040F8022101EB4000C0B210BD8C48ED
S3150000AFD070472DE9F05F8B4D0024A34628780028A2
S3150000AFE07DD105F10C0000F0EDF910220421864810
S3150000AFF000F0DAF8064610220421686800F0D4F85A
S3150000B000E96846EA00404840DFF8FC8128611022E2
S3150000B010082108F1040000F0C7F82969764E81EA94
S3150000B020000A2420C5F810A030707070B070182087
S3150000B030F0700420002118F801203254401C491CED
S3150000B040C9B2C0B20429F6D36B6800215A5C3254E7
S3150000B050401C491CC9B2C0B20429F7D3DFF8AC9131
S3150000B0600021C1F10302EB68D20023FA02F200EBE1
S3150000B0704103D2B209EB121803EB060C98F80080D4
S3150000B08002F00F028CF80080491C19F80220C9B2A0
S3150000B0908CF801200429E4D3083000F0FF0C0020CE
S3150000B0A0C0F10301C9002AFA01F10CEB4002C9B252
S3150000B0B009EB1118931998F8008001F00F0183F835
S3150000B0C00080401C19F80110C0B259700428E7D35B
S3150000B0D00CF10800C0B206F800B0301D00E022E016
S3150000B0E003F0B0FFC1B2464B022000EB41001870DE
S3150000B0F00320587002220020BBEB410F0CD210F047
S3150000B100010F1CBF02EB000C03F80CB01FD0401C53
S3150000B110C0B2B0EB410FF2D302EB4100C0B203F86C
S3150000B12000B001202870344B39483A4E13F804CF4A
S3150000B1306BF307074FF0010817F0FF0F10D0A9684F
S3150000B1400978002908BF6BF3070709D01AE006EB58
S3150000B150500C02EB00089CF804C003F808C0D6E7C0
S3150000B1600146401C0978402904BF0278412A0DD1C6
S3150000B170401C68F30707AB60BCF1000F08BF6BF318
S3150000B1800707D9D0AA6812F8011BAA6000291CBFBC
S3150000B1903155641CD0D1C4F500713019202203F05A
S3150000B1A03FFF0120BDE8F09F70B400252B462C46DA
S3150000B1B000291DD990F800C0ACF13006092E98BFC1
S3150000B1C030230AD9ACF14106052E98BF372304D99E
S3150000B1D0ACF16106052E98BF572305FB02CCACEBFC
S3150000B1E0030504F1010C401C0CF0FF048C42E1D372
S3150000B1F0284670BC70470000981000209C10002064
S3150000B200B510002024E0FF1FF000002000FB000026
S3150000B21095F90000D00B002070470000002211466F
S3150000B2201448DFF854C000DF0120704700220121D6
S3150000B2301048DFF844C000DF0120704700220221D9
S3150000B2400C48DFF834C000DF012070470B49D0E915
S3150000B2500020C1E90020002203210648DFF818C0BB
S3150000B26000DF012070470549D1E90021C0E900212E
S3150000B27001207047F00500209BE4000038E0FF1F26
S3150000B28070B54748816B41F4A0518163454B8115E8
S3150000B2901961454910220A604A618A6842F0100223
S3150000B2A08A604FF488619961C16B41F08071C16316
S3150000B2B03E4C606D40F004006065606D20F001005A
S3150000B2C06065D4F8800020F00100C4F88000606E4C
S3150000B2D020F080606066606E20F080706066206896
S3150000B2E020F020002060E06B40F02000E063E06B7F
S3150000B2F040F00800E063E06B20F00400E063002506
S3150000B30065602B48006803F0B0FE6FF00E0103F095
S3150000B310A0FE03F0AFFEA060E56400EBD070401025
S3150000B320206408202060606D20F00400606570BD18
S3150000B33010222049002814BFC1F8C820C1F8C42033
S3150000B3407047102100281B4A14BFC2F8C810C2F863
S3150000B350C410704710210028164A14BFC2F8C8103E
S3150000B360C2F8C4107047002070471348416841F086
S3150000B370807141601149416041151148C0F8FC11C6
S3150000B380C16770470C48D0F8A010022918BF704753
S3150000B390416841F08071416040F21311416070478D
S3150000B3A00080044000C00440C0F00F40008003400D
S3150000B3B00000002000F00F4000A0044013010A0026
S3150000B3C088E000E004490A6ECB6D5A408B6D496DEA
S3150000B3D059405140016070470080044070B5BF4D30
S3150000B3E04FF480242C6000F057F9BD48816B41F47E
S3150000B3F000618163416B41F4006141632C60B9488F
S3150000B400C17841F00C01C170B7494FF44072CA606F
S3150000B4100A61C17841F02001C170C5F8004145F8C4
S3150000B420804C012070BDAF4810B5C17821F00C01E9
S3150000B430C170C17821F0A001C17000F02DF9012082
S3150000B44010BD70B5A54C4FF480250026256000F090
S3150000B45023F9A448C17821F08001C170A348066091
S3150000B46044F8805C012070BD2DE9F0474FF0E028DC
S3150000B47000244FF4802905462746C8F88091994E46
S3150000B480F07820F00C00F07000F006F968790021E1
S3150000B490012804BF0124274603D0022808BF01243F
S3150000B4A000D10121080140EA44003843B0709049B8
S3150000B4B0286809680001B1FBF0F03178C0F3042276
S3150000B4C021F01F011143317071787070F07840F0EF
S3150000B4D00C00F070C8F88092C8F800910120BDE811
S3150000B4E0F087012070478348D0F80812D0F80C0284
S3150000B4F0081AC0F500707047002904BF0020704785
S3150000B50030B4491E7B4A4FF0000C89B2D2F808329B
S3150000B510D2F80C421B1B1BB2B3F5007F15DA10F8EC
S3150000B520014BD2F80032D5185B1CC2F800322C70E1
S3150000B530D2F80032C3F30803C2F80032D2F8083258
S3150000B5405B1CC2F808320CF1010C0B00A1F10101E1
S3150000B55089B2DBD1654B1868002808BF61481CD149
S3150000B560017911F0800FFBD001211960D2F8041285
S3150000B5705318491CC2F804121978C171D2F8041282
S3150000B580C1F30801C2F80412D2F80C12491CC2F821
S3150000B5900C12C17841F08001C17030BC6046704722
S3150000B5A0002904BF0020704710B4491E524A4FF0CC
S3150000B5B0000C89B2D2F80832D2F80C42A3421AD053
S3150000B5C0D2F80432D4185B1CC2F80432237800F88F
S3150000B5D0013BD2F80432C3F30803C2F80432D2F8AE
S3150000B5E00C325B1CC2F80C320B00A1F101010CF10C
S3150000B5F0010C89B2DED110BC6046704718B4394BD5
S3150000B60018793C49D1F80822D1F80C42DFF8DCC0A1
S3150000B610A2423BD010F0800F15D0D1F804228C182E
S3150000B620521CC1F804222278DA71D1F80422C2F33E
S3150000B6300802C1F80422D1F80C22521CC1F80C22CF
S3150000B6400121CCF8001010F0200F04BF18BC704781
S3150000B65010F0060F1FBFD8798DF8000018BC704790
S3150000B660DA792548D0F800124318491CC0F80012B0
S3150000B6701A70D0F80012C1F30801C0F80012D0F811
S3150000B6800812491CC0F8081218BC7047D97821F076
S3150000B6908001D9700021D4E710B5BB224FF40071A8
S3150000B6A0154803F0BDFC14480024C0F80042C0F859
S3150000B6B00442C0F80842C0F80C42BB224FF40071A5
S3150000B6C0A0F5047003F0ACFC0A48C0F80042C0F8CC
S3150000B6D00442C0F80842C0F80C4210BD80E100E008
S3150000B6E00080044000B0064000B004400001002085
S3150000B6F000000020F8EFFF1F08F2FF1FFE49082098
S3150000B70008607047FD4908200870FD48416841F40B
S3150000B710A0214160816C21F00F01816400218164C8
S3150000B720416B41F48021416301DFF64890F80C112A
S3150000B73041F0800180F80C1190F80C1111F0800F87
S3150000B740FAD1F149090A80F89C10EF49090C80F8F2
S3150000B750B010ED49090E80F8B410FF2180F8801072
S3150000B760EA490968002919BF0421022200210A4674
S3150000B770114341F0190180F88410402180F800112E
S3150000B78090F80C1141F0400180F80C117047DD492A
S3150000B790002891F8940014BF40F0010020F0010049
S3150000B7A081F8940012BF102091F8080120F01000D3
S3150000B7B081F8080170470120D249002201EB80037D
S3150000B7C083F8C020401C1028F8D3CF4808234380B4
S3150000B7D000F1A0034360C8230370027200F5907362
S3150000B7E04361C2610D2081F8C000C94B4FF055304E
S3150000B7F0186091F8940040F0020081F89400FF2050
S3150000B80081F8800081F8880081F88C0081F8982002
S3150000B8107047C048017841F0200101707047BD486B
S3150000B820017821F0200101707047BB48007810F0C4
S3150000B830020F08BF7047B34A92F8940040F0040024
S3150000B84082F894004CF24F3000BF401EFCD292F8B2
S3150000B850940020F0040082F8940070477047002995
S3150000B86018BF704700F07F00AC49087070477047FA
S3150000B87070B4AB4C10F0800F4FF0000CA4F1A00593
S3150000B8804FF0010218D000F00F06A14802EB460166
S3150000B89002FA01F150E8002F0A4340E80023002B8A
S3150000B8A0F8D104EB062000F1800105EB4610C0F844
S3150000B8B01CC0416170BC7047430095499A40D24311
S3150000B8C051E8003F03EA020641E80063002BF7D186
S3150000B8D08A490A5C00F00F0105EB411004EB0121D7
S3150000B8E0428041608821017080F808C070BC7047B2
S3150000B8F001468078898810F0800F04BF7F4A115472
S3150000B900B6E770477F4910F0800F18BF00F00F00B0
S3150000B91001EB800090F8C01014BF41F0050141F022
S3150000B920090180F8C0107047764910F0800F18BFE3
S3150000B93000F00F0001EB800090F8C01014BF21F05A
S3150000B940050121F0090180F8C01070476D4900F02B
S3150000B9500F0001EB800090F8C01041F0020180F862
S3150000B960C0107047674900F00F0201EB820191F8A1
S3150000B970C02022F0020281F8C02079E770472DE945
S3150000B980F00105004FEA00705F4C4FEA906304EB4C
S3150000B990C3074FF00006788806D114F83320C2F3A7
S3150000B9A083020D2A08BF01260022002884BFDFF883
S3150000B9B070C10CEB831C06D91CF8028001F80280CA
S3150000B9C0521C9042F8D84D4A4FEA530C525D504DE6
S3150000B9D07A8014F833702A68C7F3801722FA0CF2BB
S3150000B9E002F00102BA4213D136B18979002904BFA7
S3150000B9F047496FF001021DD04549012202FA0CF2B7
S3150000BA0051E8006F86EA020741E80076002EF7D17A
S3150000BA10296821FA0CF111F0010F14BFC821882101
S3150000BA2004F833103F490A7822F020020A70BDE874
S3150000BA30F001704751E8006F06EA020741E8007618
S3150000BA40002EF7D1E4E730B400F00F00022303EB39
S3150000BA50800C2D4D002305EBCC00002A428084BFCC
S3150000BA602F4800EB8C1004D9CC5CC4545B1C9A4262
S3150000BA70FAD827494FEA5C000968C14011F0010F66
S3150000BA8014BF8821C82105F83C102149012303FA77
S3150000BA9000F051E8003F83EA000C41E800C3002BA8
S3150000BAA0F7D130BC104670471F480178007940F244
S3150000BAB0FF7202EA00200843704715484068704745
S3150000BAC02DE9F0410F4E96F8800096F8905086F8D2
S3150000BAD0800096F884100D4F01EA000414F0010F5F
S3150000BAE009D0FFF768FE00F03BFC396800291CBF4F
S3150000BAF0042002F02CFB19E004E100E048E0FF1FFF
S3150000BB0000800440002007400012002050E0FF1F84
S3150000BB1040E0FF1F842007404A010020982007408C
S3150000BB20A012002094200740A020074014F0100F18
S3150000BB300BD096F8840040F0200086F8840039681F
S3150000BB4000291CBF102002F002FB14F0200F0BD0BE
S3150000BB5096F8840020F0200086F8840039680029D1
S3150000BB601CBF202002F0F3FA14F0040F1FBF39683F
S3150000BB700029402002F0EBFADFF8CC80022C0ED030
S3150000BB8014F0080F08BFBDE8F081C5F303142F4E6B
S3150000BB902F4FC5F3C000C5F3800174B117E096F8C6
S3150000BBA08800C8F80400396800291CBF802002F00C
S3150000BBB0CEFAFF2086F88800E2E7002202EB400278
S3150000BBC00A4416F83220C2F383020D2A0AD0A200D4
S3150000BBD002EB4000451816F83500C0F38300012833
S3150000BBE01FD117E0D8F8000020F00200C8F80000C6
S3150000BBF0307E20F080003076307C20F0800030747B
S3150000BC003968002908BFBDE8F0810220BDE8F0418F
S3150000BC1002F09DBA57F8241000291CBF042002F038
S3150000BC2096FA16F83500C0F38300092818BFBDE858
S3150000BC30F08157F82410002908BFBDE8F0810820DC
S3150000BC40BDE8F04102F083BA40E0FF1F0012002079
S3150000BC5018F4FF1F0120FEF724BAFEF729BA38B5FB
S3150000BC6069461E48FDF7FFFE002808BF38BD00984C
S3150000BC70A0F5E01120391CBF002038BD69464FF001
S3150000BC808070FDF7F0FE002808BF38BD009810F060
S3150000BC90040F20D00020FEF70BFA114C012120469C
S3150000BCA0FDF707FF002808BF38BD69464FF08070D2
S3150000BCB0FDF7D9FE002808BF38BD009810F0010F27
S3150000BCC0F3D069462046FDF7CEFE002808BF38BDF2
S3150000BCD000980028F5D1012038BD0000FC000001C5
S3150000BCE00400000100B583B040F2944244494FF08D
S3150000BCF00050FEF737F8002804BF03B000BD00204F
S3150000BD0000900346024601903E493F48FEF759F926
S3150000BD10002818BF012003B000BD00B583B0002184
S3150000BD20009182020B46019138493748FEF749F9DE
S3150000BD30002818BF012003B000BD00B5002083B065
S3150000BD40034600900246019031492F48FEF739F923
S3150000BD50002818BF012003B000BDB0F5806F0AD1DE
S3150000BD60087B00F03001202903D000F003000228F0
S3150000BD7001D000207047012070472DE9F0430024D0
S3150000BD8083B090460546B0F5806F0CD1087B00F075
S3150000BD903002202A03D000F00300022803D003B0AB
S3150000BDA00020BDE8F08342461A48FDF7DBFF002875
S3150000BDB004BF03B0BDE8F083B8F1000F1CD9DFF86B
S3150000BDC05890164E002704F1005000F52060CDE98A
S3150000BDD000074FF400732A46494606F11400FEF7A1
S3150000BDE0F0F8002804BF03B0BDE8F08304F5007442
S3150000BDF005F500754445E6D303B00120BDE8F083A0
S3150000BE0014FB000021000020BCFF00005F000020A2
S3150000BE103D000020000A00208B000020A8FF000043
S3150000BE2000207047002070470020704700207047B0
S3150000BE3000207047002070470020704700207047A0
S3150000BE400020704700207047002070470020704790
S3150000BE500020704710B5FEF797FB10BD10B5FEF732
S3150000BE6095FB10BD10B5FE480024FE494460846071
S3150000BE70C4600461C0E90541C0E907144462FA4997
S3150000BE808462C0E90B4141630480FEF781FBF748F9
S3150000BE904FF4165101600471447108218171FEF757
S3150000BEA079FB10BDF24810B5C178026861F31F62D4
S3150000BEB0EE490A6002790A7142794A71807988717D
S3150000BEC00846FEF767FB10BD10B5E848FEF770FBA5
S3150000BED0002808BF10BDE54AE54910680870030A46
S3150000BEE04B70030C8B70000EC87010790871507976
S3150000BEF0487190798871012010BDD94910B5088024
S3150000BF00FEF780FB10BDD648D0E90410081AD949BF
S3150000BF100988081A70472DE9F041D14F0C460646AC
S3150000BF20D7E90401D34A401A1188091A0029DCBF4F
S3150000BF300020BDE8F0818C42C8BF0C460025D7E939
S3150000BF40060188420FD3DFF81C8311880319414488
S3150000BF508B4208D30D1A2A46314603F04FF82E4479
S3150000BF60641BC7F818803CB122463146B86903F015
S3150000BF7045F8B8692044B8613969601901443961E6
S3150000BF80BDE8F08101B501216846FFF7C4FF01282D
S3150000BF900CBF9DF800004FF0FF3008BD034670B59A
S3150000BFA0AF4D0C46D5E90C01884298BF00240AD94A
S3150000BFB0401A8442C8BF04462246184603F01EF8BB
S3150000BFC0686B20446863204670BD38B5A44D0124D3
S3150000BFD06846D5E90C218A420ED9521A012AB8BF01
S3150000BFE01446224603F00AF8686B012C2044686365
S3150000BFF004BF9DF8000038BD4FF0FF3038BD9848AB
S3150000C000D0E90C10081A70479B4910B50978002929
S3150000C01004BF002010BDA122984902230A702022E5
S3150000C0204A7000228A70CA700A714A718B71CA718D
S3150000C0300872000A487292480A22007840F080008E
S3150000C040FFF701FD012010BD10B5FFF70BFF10BD76
S3150000C0502DE9F047824DA868002808BFBDE8F087A3
S3150000C060D5E90401421AE8684FF0000652EA0001D9
S3150000C07004BFAE60BDE8F0877E49DFF8E891814FE6
S3150000C0800988DFF8048209EB01047549C96962B1C0
S3150000C090A869814222BF8818A042621A98F8000057
S3150000C0A037F810009042B8BF02467848EE60007834
S3150000C0B040F08000FFF7C7FCE9690144E9616A695D
S3150000C0C08C4202446A6108BFC5F81C9029699142F6
S3150000C0D009D198F8001037F81110814202BF0120EB
S3150000C0E0E860BDE8F087EE60BDE8F08770B55C4CAF
S3150000C0F000250126206A002804BFD4E90C018842E5
S3150000C10006D15949884203D02163E56225626163FD
S3150000C110A06A80B1206A002804BFE06A00280AD11C
S3150000C120266200F0D7F82562D4E90C0188421CBFCC
S3150000C130401AFFF781FED4E90101084318BF70BD1C
S3150000C140D4E90401884208BF70BD6660A660FFF7A7
S3150000C1507FFF656070BD704710B5414C206A18B10D
S3150000C160A06A401CA06210BD01202062606200F03F
S3150000C170B1F8002060622062D4E90C0188421CBF3D
S3150000C180401AFFF759FE10BD10B5354C60680028FF
S3150000C19018BF10BD01206060FFF75AFF00206060E5
S3150000C1A010BD10B5044610F0040F1CBF2046FFF763
S3150000C1B0D3FF14F0080F08BF10BD294C6068002893
S3150000C1C018BF10BD01206060FFF742FF00206060CD
S3150000C1D010BD2F48006838B14FF6FF710846FEF7CC
S3150000C1E075F9FEF76FF9F7E729480068A0B1002650
S3150000C1F01B4C01254FF6FF710846FEF767F9FEF75F
S3150000C20061F910F0080FF5D060680028F2D165607A
S3150000C210FFF71EFF6660EDE71D480068D0B30025F6
S3150000C2200F4C01264FF6FF710846FEF74FF9FEF751
S3150000C23049F910F0040FF5D0206A18B1A06A401C25
S3150000C240A062EFE72662666200F044F86562256246
S3150000C250D4E90C0188421CBF401AFFF7EDFDE1E767
S3150000C26004010020EDEEFF1F6DEFFF1F3C010020D3
S3150000C27014000020B4F2000045010020EDEFFF1F7E
S3150000C280B0F20000B8F2000047010020B1F2000051
S3150000C290C8F20000FFE724480068D8B10027234D04
S3150000C2A001264FF6FF710846FEF710F9FEF70AF968
S3150000C2B0044610F0040F1CBF2046FFF74DFF14F094
S3150000C2C0080FEED068680028EBD16E60FFF7C0FE5D
S3150000C2D06F60E6E710B5154C164A1548216B1288B3
S3150000C2E0164B081A101A144A1B7832F8132090427B
S3150000C2F010DB13480078FFF742FB216B08442063EC
S3150000C300A06A002808BF10BD616A002908BF401E48
S3150000C31008D010BD0120E062606A00281ABFA06A3A
S3150000C320401C10BDA06210BDC8F200000401002030
S3150000C3306DEFFF1FB6F20000B8F2000047010020C3
S3150000C340B2F20000FF4910B50020C870FEF7C3F82E
S3150000C350FEF7CAF8BDE81040FFF7D4B9FFF717BAE1
S3150000C360F9484FF001120178F648C18000210170AA
S3150000C3704170C0E9022101617047F2484078002807
S3150000C38018BF012070470020F049FFF7F8BA10B532
S3150000C390EF4CF048A28801788A4288BFCAB212B927
S3150000C3A00020E849087180202168FFF74CFB2168CE
S3150000C3B001442160A188081AA08010BD10B5E44C84
S3150000C3C000202168FFF7DBFA216801442160A1887B
S3150000C3D0081AA08010BD002211468020FFF733BB4B
S3150000C3E0DD490020FFF7CBBA2DE9F14F82B0D84FD7
S3150000C3F00298A7F1180610F0020F00F0278306F145
S3150000C40020010020FFF7BBFA06F120042078C009BE
S3150000C410FFF777FAE088B8802078C0F3411121B1A0
S3150000C420012900F0F68200F002BBC84949780C29C0
S3150000C43080F0FD82DFE801F00643FB62FB7E93FBA2
S3150000C440FAF9F8F7C14910F01F0008BFC34811D028
S3150000C450012803D0022810D000F0E9BA707800282D
S3150000C46000F0E5820879B178884280F0E082BA4827
S3150000C47000210180386000F00FB9087900F08F00C4
S3150000C48010F0800F1DBF00F00F014FF4803202FA4A
S3150000C49001F1012108BF814072781AB910F00F0F1F
S3150000C4A040F0C582B068084200F0C182F0680840DA
S3150000C4B018BF0120A8490880396000F0EDB80020B7
S3150000C4C002F06EFE002800F0B282002211468020A3
S3150000C4D0FFF7B9FAA248006848B17169002918BF88
S3150000C4E0082000F0B382FDF7E7FF00F0AFBA9D48E1
S3150000C4F00168002940F08A8200F0A8BA012002F003
S3150000C5004FFE002800F09382002211468020FFF79C
S3150000C5109AFA9348006830B17169002918BF04205F
S3150000C52000F09482DFE78F480168002940F06E82B0
S3150000C53000F08CBA854910F01F0F40F07882887899
S3150000C540012140F08000307000F07F00FFF787F98E
S3150000C550002211468020FFF776FA00F077BA7B4971
S3150000C56010F01F0003D001287BD000F060BAC87815
S3150000C570082880F05C82DFE800F05A04165B5A5AFD
S3150000C5800936794838601220019078E077480078BB
S3150000C590002800F04C82F07800280CBF74487548DB
S3150000C5A038600A203DE071480078002804BFF07822
S3150000C5B0012800F03C82F07800280CBF6E486F48D6
S3150000C5C000908A78002042B100990B7813B14B880D
S3150000C5D019440091401C8242F6D100980178002946
S3150000C5E000F025821BE061480078002800F01F82D9
S3150000C5F0F07800280CBF6248624800908A780020D4
S3150000C60042B100990B7813B14B8819440091401C34
S3150000C6108242F6D100980178002900F0088238603D
S3150000C620408801902BE05AE147E143E038E0AFE172
S3150000C630554800908B78032B14D0002043B1009905
S3150000C6400A78002A1CBF11440091401C8342F6D18F
S3150000C6500098017800291CBF3860007800F0E78157
S3150000C660DFE705E0FEF7B3FC3860FEF7A7FCD8E786
S3150000C67001A9684600F0E4FA002800F0D881B988DC
S3150000C6800198814208D9334980B2B8800978491E99
S3150000C690084204BF01203071FFF779FE00F0D6B9D9
S3150000C6A010F01F0F40F0C38138483860FFF76FFE67
S3150000C6B000F0CCB94FF0000810F01F0F40F0B78122
S3150000C6C022488078002867D028480078002804BFD0
S3150000C6D0F078012800F0AB81F07800280CBF264CDA
S3150000C6E0264C207800281CBF4FF4803A4FF0010BEF
S3150000C6F07BD0607802280AD0042808BF94F803800B
S3150000C70074D0052808BFB8F1000F7AD091E00F4821
S3150000C71061798078814218BF608869D170701C4B3E
S3150000C7202079B07019880020002984BF194A002199
S3150000C73005D91154B3F800C0401C8445F9D8012529
S3150000C740B1462AE04401002090F200006401002076
S3150000C7505C01002094F20000140000204A01002031
S3150000C760C8F20000C4F200003AF3000091F20000A3
S3150000C7704CF300004DF300004EF30000C9F3000037
S3150000C780CAF30000CBF30000CCF300004501002003
S3150000C79092F200001CE0FF1F52E0D9F808100BFAD5
S3150000C7A005F008421CBF2846FFF7BEF80AFA05F056
S3150000C7B0D9F8081008421CBF45F08000FFF7B4F80E
S3150000C7C06D1C102DBDD34FF00110C9F808000020D4
S3150000C7D0C9F80C00C9F810000120FFF748F8E07905
S3150000C7E010F0400FB9F8060003E04EE021E008E043
S3150000C7F020E014BF40F0010020F00100A9F8060077
S3150000C80017E0A07800F08F0515F0800F1ABF05F02D
S3150000C8100F000AFA00F00BFA05F0B1680843B060A1
S3150000C8202046FFF765F82846FFF76CF82846FFF71D
S3150000C8301FF820780444207800287FF45AAF24E0BB
S3150000C8404FF00008012486F801804FF48039254610
S3150000C850B16805FA04F008421CBF2046FFF764F8E9
S3150000C86009FA04F0B16808421CBF44F08000FFF7E3
S3150000C8705BF8641C102CEBD34FF00110C6E90208DC
S3150000C8800020C6F81080FEF7F2FFA948717880787C
S3150000C89088427DD1002211468020FFF7D4F8A548B2
S3150000C8A0006828B17169002918BF012072D01AE604
S3150000C8B0A148016800296ED1C8E09D4900F01F001B
S3150000C8C0012865D17078002862D00879B17888424D
S3150000C8D05ED29A4908443860FFF759FDB6E04FF03A
S3150000C8E0000900F01F00C846CA46CDF8049001288A
S3150000C8F04ED1707800284BD00020009090480078E8
S3150000C900002804BFF078012842D0F07800280CBF38
S3150000C9108C4C8D4C2078E0B36078022804D0042833
S3150000C92009D005281DD059E060797178884218BF72
S3150000C930608854D152E07E4894F8029094F80380BF
S3150000C94001794FF0000A494504BF8078404545D13A
S3150000C95001200090794810F80910019100F809802B
S3150000C9603CE073480179494538D1A17801F08F0B35
S3150000C9701BF0800F1DBF0BF00F024FF4803101FA40
S3150000C98002F5012108BF01FA0BF58078404503E066
S3150000C9904DE028E05AE039E011D1B0682843B06094
S3150000C9A0F068A843F0602046FEF7A2FF5846FEF75F
S3150000C9B0A9FF5846FEF75CFF4AEA050A0EE0019811
S3150000C9C0804508BF1AEA050F08D1B068A843B060D1
S3150000C9D0F068A843F0605846FEF7A6FF20780444A6
S3150000C9E02078002898D1009808B3002211468020AC
S3150000C9F0FFF729F84F48006828B17169002918BF68
S3150000CA00022023D06FE551480168F9B108468047F6
S3150000CA101CE010F01F000AD0012808D100F043F9ED
S3150000CA20A0B900F0C1F988B900F094F870B940488F
S3150000CA30017811F0800F04D1C088002818BF0020AB
S3150000CA4000D18020FEF782FF0020B880029810F007
S3150000CA50040F08D0364C207810F0800F13D03C49D4
S3150000CA600020FEF78CFF029810F0080F3ED03048E9
S3150000CA70007810F0800F2FD0B8883179084318BF9E
S3150000CA80FFF785FC32E0B8880028ECD00020396832
S3150000CA90FEF775FF396801443960B988081A000441
S3150000CAA0000CB880DFD12078C0F3411171B10129A3
S3150000CAB00CD110F01F0009D0012807D100F043F96E
S3150000CAC00028D0D100F08EF80028CCD18020FEF7C7
S3150000CAD03DFF0020B880C6E7307810F0800F05D003
S3150000CAE000F07F0030700021FEF7B9FE029810F0CA
S3150000CAF0400F1CBF0020FEF735FF029810F0800F94
S3150000CB0004BF03B0BDE8F08F802003B0BDE8F04F4E
S3150000CB10FEF728BF0748006848B14FF6FF71084680
S3150000CB20FDF7D4FCFDF7CEFCFFF75EFCF5E7000051
S3150000CB3064010020C8F20000BCF200001CE0FF1FE8
S3150000CB4091F200004EF30000C9F30000C0F20000AD
S3150000CB501400002070B53549354A0879127890429C
S3150000CB6003D0344A127890423AD130484978324C50
S3150000CB70324D4088042920D007DCA9B101290DD007
S3150000CB80022911D0032911D02AE020290CD021290D
S3150000CB9017D022291AD023291CD021E0FFF750F9FB
S3150000CBA038B91DE0012070BD2C60FBE7FFF74CF99A
S3150000CBB0B0B12C60FFF7EBFBF4E7FFF747F960B97C
S3150000CBC00EE0FFF781F90028F3D109E0FFF795F9A8
S3150000CBD018B905E0FDF7FFFC10B1FFF7FCFBE1E734
S3150000CBE0002070BD10B51149114A0879127890429B
S3150000CBF003D0104A1278904216D1487820B1022804
S3150000CC0006D0202809D00FE0FFF718F940B90BE04D
S3150000CC104888FFF717F918B906E0FFF743F918B186
S3150000CC20FFF7D9FB012010BD002010BD64010020D4
S3150000CC30AEF20000AFF20000140000205C010020FC
S3150000CC4010B44A4A494BDFF828C1D278494C1B79BF
S3150000CC50212A0DD0222A04BF9CF8000083421FD14E
S3150000CC604548206045480088086010BC0120704790
S3150000CC709CF80020934213D1414A1378414A002B75
S3150000CC80127808BF012A0BD0002A0CBF3E4A3F4A41
S3150000CC90026010463E4A1288104420600920E3E7ED
S3150000CCA010BC0020704710B5304C31492079097806
S3150000CCB0884246D160780C2843D2DFE800F042066D
S3150000CCC0293342424242421B2D3C00F0A4F8002880
S3150000CCD037D0E078012802D0032804D006E02549A1
S3150000CCE02C48086002E023492B480860FFF74FFBF9
S3150000CCF0012010BDE078022802D0032804D00FE0FE
S3150000CD001C49264808600BE01A492348086007E0DA
S3150000CD1000F0B1F848B914E000F0B5F870B910E0C9
S3150000CD20012010BD00F0C7F858B112491C48086030
S3150000CD30FFF72DFBF4E700F0C5F810B1FFF74BFB4A
S3150000CD40EEE7002010BD10B50848094A01791278AF
S3150000CD50914204BF4078092806D100F073F818B153
S3150000CD60FFF739FB012010BD002010BD6401002033
S3150000CD7095F200005C01002014F3000036F3000079
S3150000CD8091F20000470100204EF30000C9F30000B5
S3150000CD9038F30000CD08002022E0FF1FADEEFF1F94
S3150000CDA01400002000F0F1BA10B51348134A0179B7
S3150000CDB0127891421DD142784188C088FE2A0AD055
S3150000CDC0FF2A04BF0029002813D100F007FB80B119
S3150000CDD0FFF701FB0BE0002908BF012809D100F08D
S3150000CDE006FB30B1074906480860FFF7D0FA012074
S3150000CDF010BD002010BD000064010020A6F2000056
S3150000CE00140000205C010020704700207047704726
S3150000CE10002070477047FC490022C878012808BFE7
S3150000CE20FA4A07D0022804BF00207047032808BF2B
S3150000CE30F74A00D1521C10B589780023FDF7F5FB9F
S3150000CE40012010BDF0490022C878012804BF002047
S3150000CE507047022808BFEF4A03D0032808BFEC4AF0
S3150000CE6000D1521C08B500230093CB888978FDF7C2
S3150000CE7006FC012008BDE448E7498078085CE749DC
S3150000CE80087001207047E048DF498078C97810B102
S3150000CE90E34A81540DE0E34A00201378002B88BF53
S3150000CEA0DD4B06D91954401C92F800C0C0B2844527
S3150000CEB0F8D80120704710B5FFF7AAFFD7490870C8
S3150000CEC0012010BDD04810B58078FFF7A3FF0120E0
S3150000CED010BD2DE9F047D44EB0887188DFF82C8359
S3150000CEE0DFF84093002508F10104884224BFB069A9
S3150000CEF0002816D17561B580012398F800102246E6
S3150000CF001846FDF792FB7080708850B1C6F8148001
S3150000CF1099F80000012898BF746102D97088401CF6
S3150000CF20708070880127002842D1F068002818BF59
S3150000CF30F5603DD1306900283AD099F800100129F2
S3150000CF4088BF98F8004010D888F80050B5800223B2
S3150000CF5008F1010200210120FDF767FB708070884F
S3150000CF60002818BF7461356122E0202C28BF0024F8
S3150000CF7007FA04F1014204BF611CCCB2F5D0601C73
S3150000CF80C1B288F80010B580022308F10102012021
S3150000CF90FDF74BFB7080708820B1C6F8148070884E
S3150000CFA0401C7080316907FA04F021EA0000306104
S3150000CFB07088B169084308BFBDE8F0877088B188FA
S3150000CFC0DFF86C92401A84B2DFF8608299F80000AC
S3150000CFD038F81000A04238BF0446964822467169C8
S3150000CFE0007840F08000FEF72EFD706992492044DB
S3150000CFF07061B088204480B2B0800988884208D227
S3150000D00099F8000038F81000A04204BFB761BDE8E7
S3150000D010F087B561BDE8F087F8B5834C00267D4DF5
S3150000D020E088002808BFE5618448E1690078FEF7DA
S3150000D030A6FC0004E169000C0144E161E1880144B9
S3150000D0408BB2E3800BD07E4909888B4207D2784A9F
S3150000D0507649127831F81210884228BFF8BD79480F
S3150000D060017801200129009005D86A4A0021022092
S3150000D070FDF705FB05E029785B1E6A1C0220FDF71B
S3150000D080FEFAE680F8BD684800214170C160016182
S3150000D0904161418081808161C161C18001620181FC
S3150000D0A0704710B5044610F0080F1CBF2046FFF766
S3150000D0B010FF14F0040F08BF10BD2046BDE8104055
S3150000D0C0AAE761480078002808BF70472DE9F05F9D
S3150000D0D0554F042300243978481C3870544800788A
S3150000D0E000EB400293405B1E994202DB002139703F
S3150000D0F00124564B4FF0000C1988FF293CBF491CF0
S3150000D1001980534931F8109050480088814508BF6E
S3150000D1104FF0010C0020434B197800294FD902210A
S3150000D120DFF830E1DFF830A101FA02F84FF0010B29
S3150000D130002274B11AF80010FF293CBF491C0AF8F6
S3150000D14000101EF8001021B11AF800308B4228BFDB
S3150000D15001221EF8005005FA08F1494503DA002DB0
S3150000D16018BF012300D10023BCF1000F18BF002B0C
S3150000D17004D03E690BFA00F1314339612649095C56
S3150000D1808D420CD01AF800508D4206D33E690BFA38
S3150000D19000F535433D6100253D700EF8001042B1A3
S3150000D1A023B93A690BFA00F11143396100210AF8F3
S3150000D1B000101C49401CC0B209788842B8D3BCF1A3
S3150000D1C0000F02D02149002008803869002808BFD6
S3150000D1D0BDE8F09F7888002818BFBDE8F09F0020C2
S3150000D1E0BDE8F05F75E61D480068C8B34FF6FF71ED
S3150000D1F00846FDF76BF9FDF765F910F0080F1CBF3F
S3150000D2000020FFF766FEF1E764010020CC0800204D
S3150000D21021E0FF1FACEEFF1F1F00002014000020BE
S3150000D2201E000020A0F200006C0100209CF200000D
S3150000D2304701002096F20000A2F2000097F20000DB
S3150000D240A4F20000A1F20000450100201C0000200D
S3150000D25098F2000020E0FF1F1E000020C8F2000028
S3150000D260FFE73648006868B14FF6FF710846FDF7DC
S3150000D2702DF9FDF727F910F0040F1CBF0020FFF76A
S3150000D280CBFEF1E72D480068A0B14FF6FF710846C6
S3150000D290FDF71CF9FDF716F9044610F0080F1CBF40
S3150000D2A02046FFF716FE14F0040F1CBF2046FFF7BA
S3150000D2B0B3FEEAE72DE9F041074621481646008805
S3150000D2C0824238DC1F480378002B34D01E4C0120E4
S3150000D2D0E06060884FF0000830B100E003B3B4F8B6
S3150000D2E002C0BCF1000FF9D1184D681C2F7001F077
S3150000D2F085FE6561A4F804806680154800780128DB
S3150000D30099BF681C60616088401C88BF60800020EF
S3150000D310FFF7DFFD0F4800F807800120BDE8F08128
S3150000D320C4F80C80C4F81480A4F80480A4F8028021
S3150000D3300020BDE8F0810020BDE8F081C8F20000C1
S3150000D340A2F20000450100206C010020CC0800205C
S3150000D350A0F200001E00002070477047704770471B
S3150000D36010B50446FEF7F2FA14F0800F1DBF04F064
S3150000D3700F004FF4803101FA00F0012008BFA040F1
S3150000D380FC490A681043086010BDFB48007900F0AC
S3150000D3908F0010F0800F1DBF00F00F014FF4803298
S3150000D3A002FA01F1012108BF8140F44A137843F0E3
S3150000D3B08003834218BF7047EE480068084208BFE2
S3150000D3C07047EF48EF490068884218BF70471078E9
S3150000D3D00D2240F08000EA49FEF735BBEA490020FD
S3150000D3E00860E7490860E949087001207047E84984
S3150000D3F00020087001207047E14910B5E148086037
S3150000D400DE480D22007840F08000FEF71CFBDF4965
S3150000D4100520087010BDDD4910B54868C8600028B1
S3150000D4201CBF012010BDDB48816859B1007B10F09C
S3150000D430800F0CBFD848D148007818BF40F0800054
S3150000D440FFF78EFFCE4901200873FFF7D5FF0020B6
S3150000D45010BD2DE9F041CD4DDFF820830026A969E6
S3150000D460686AC74F88420AD398F80000002440F043
S3150000D4708000FFF775FF3E73FFF7BEFF08E0C8495F
S3150000D480C648097830F81140E86A844228BF044645
S3150000D490FFF7C1FF002808BF0024A86A00282FD084
S3150000D4A07CB1A96AE8692246014498F8000040F078
S3150000D4B08000FEF7C8FAA86A2044A862E86A001B42
S3150000D4C0E862D5E90410AA6A4143914203D1AE62EB
S3150000D4D0696A08446862B868001BB860002C08BF17
S3150000D4E0BDE8F081E86A002804BF0320287004D054
S3150000D4F02878022808BFBDE8F0813E73BDE8F081B8
S3150000D500002CDED0E96A28690144491EB1FBF0F21D
S3150000D5106869824288BF0246E969686AFDF75EFB70
S3150000D520BFE72DE9F041994D0026954FA969686A34
S3150000D530884207D398482E630078FFF711FF3E73A1
S3150000D540FFF75AFFFFF767FF002808BF2E6300208A
S3150000D550296B002984BF9349EA6909D9D5F828C0FF
S3150000D5600B5C8444401C02F80C302B6B8342F5D8CC
S3150000D570296BA86A0844A862EA6A521AEA6209B3E1
S3150000D58092B988B129690844401EB0FBF1F4686974
S3150000D590844288BF04462246E969686AFDF79EFB15
S3150000D5A0AE62686A20440CE0D5E904125143814218
S3150000D5B008D1E969686AFDF791FBAE626969686A34
S3150000D5C008446862B968286B091AB960002808BF60
S3150000D5D0BDE8F081E86A00281EBF28780528BDE866
S3150000D5E0F0813E73BDE8F04106E72DE9F041674C56
S3150000D5F00025634EA169606A884207D366482563A1
S3150000D6000078FFF7ADFE3573FFF7F6FEFFF703FF71
S3150000D610002816BF206B2563002823D0A06A68B9AE
S3150000D620E16A20690144491EB1FBF0F26069824259
S3150000D63088BF0246E169606AFDF7D0FA226B0020D6
S3150000D640002A0FD9574BD4F81CC0A16A13F80080E2
S3150000D6500F181CF80770474501D0256202E0401CF0
S3150000D6609042F3D3A16A206B0A18A262E16A0B1AF0
S3150000D670E362D4E904C101FB0CFC944503D1A56225
S3150000D680626A11446162B168091AB160002808BF74
S3150000D690BDE8F081002B1EBF20780528BDE8F0818B
S3150000D6A0206A00280CBF012000203073BDE8F0413D
S3150000D6B0A2E670B5374C354DD4F81100217D00BA7D
S3150000D6C020F0FF0001430020C5E90910E07B2F2868
S3150000D6D00AD004DC28280CD02A2805D018E0A8286F
S3150000D6E00FD0AA2808D013E0FFF795FE002808BF40
S3150000D6F070BDE08A41BA0BE0FFF78DFE002808BF37
S3150000D70070BDD4F81500217E00BA20F0FF00014359
S3150000D71028694143E962A068194D012678B188421B
S3150000D72004BF012070BD207B10F0800F14BF13488A
S3150000D7301948007818BF40F08000FFF711FE2E73DD
S3150000D740FFF75AFE002070BD70B51248022500F1A1
S3150000D7501F04816849B1007B10F0800F1CBF0120B7
S3150000D76070BD0D480078FFF7FBFD2573FFF744FEFB
S3150000D770002070BD5001002064010020A7F20000C7
S3150000D78077F4FF1F555342535401002054E0FF1F06
S3150000D7901400002058F4FF1FA8F20000AAF20000AF
S3150000D7A0470100200D09002010B5F948F94C8068A2
S3150000D7B0216B88429ABF2063032004202070F6481C
S3150000D7C0F649226B007840F08000FEF73CF9F448F9
S3150000D7D0226B8168891A81600021017310BDEC48B3
